:100000000C94C8000C94E5000C94E5000C94E500F9
:100010000C94E5000C94E5000C94E5000C94E500CC
:100020000C94E5000C94E5000C94E5000C94E500BC
:100030000C94E5000C94E5000C94E5000C94E500AC
:100040000C94E5000C94E5000C94E5000C94E5009C
:100050000C94E5000C94E5000C94E5000C94E5008C
:100060000C94E5000C94E500084AD73B3BCE016EAA
:1000700084BCBFFDC12F3D6C74319ABD56833DDAFF
:100080003D00C77F11BED9E4BB4C3E916BAAAABE0E
:10009000000000803F0000407A10F35A00A0724E2A
:1000A00018090010A5D4E80000E87648170000E41D
:1000B0000B54020000CA9A3B000000E1F505000065
:1000C00080969800000040420F000000A0860100CA
:1000D0000000102700000000E8030000000064009A
:1000E000000000000A000000000001000000000005
:1000F0002C76D888DC674F0823DFC1DFAE59E1B129
:10010000B796E5E3E453C63AE651997696E8E6C237
:100110008426EB898C9B62ED407C6FFCEFBC9C9F3E
:1001200040F2BAA56FA5F490055A2AF75C936B6C60
:10013000F9676DC11BFCE0E40D47FEF520E6B50054
:10014000D0ED902E0300943577050080841E0800C2
:1001500000204E0A000000C80C333333330F986E72
:1001600012831141EF8D2114893BE65516CFFEE62F
:10017000DB18D1844B381BF77C1D901DA4BBE424F5
:10018000203284725E228100C9F124ECA1E53D2772
:1001900011241FBECFEFD8E0DEBFCDBF11E0A0E03D
:1001A000B1E0EEEFF0E102C005900D92AA3DB1077B
:1001B000D9F721E0AAEDB1E001C01D92AE3FB20730
:1001C000E1F70E949F020C947D080C9400001092AD
:1001D000C50087E68093C40088E08093C10086E074
:1001E0008093C20008959091C00095FFFCCF80934A
:1001F000C6000895CF93DF93EC018991811103C06C
:10020000DF91CF9108950E94F300F7CF1092B900CB
:1002100088E48093B80084E08093BC00089584E96A
:100220008093BC00089584EC8093BC008091BC0056
:1002300087FFFCCF8091BB00089584E88093BC00C9
:100240008091BC0087FFFCCF8091BB00089580E1C6
:1002500097E22091BC0027FF02C080E0089501973B
:10026000C1F781E0089584EA8093BC000E942701D1
:1002700091E0811101C090E0892F08958093BB0027
:1002800084E88093BC000E94270191E0811101C0A5
:1002900090E0892F08951F93CF93DF93182FD62FC7
:1002A000C42F0E943301812F880F0E943E018D2FA1
:1002B0000E943E018C2F0E943E0184E98093BC0085
:1002C000DF91CF911F910895CF93DF93C82FD62F41
:1002D0000E9433018C2F880F0E943E018D2F0E94B7
:1002E0003E010E9433018C2F880F81600E943E01E5
:1002F0000E941301C82F0E941D0194E99093BC0035
:100300009C2FDF91CF91089580E091E00E94FA0048
:1003100040E06BE688E60E944B018AE191E00E9492
:10032000FA0080E291E00E94FA0047E069E188E685
:100330000E944B018AE191E00E94FA0086E391E07D
:100340000E94FA0046E06AE188E60E944B018AE1D9
:1003500091E00E94FA008CE491E00E94FA0040E0F3
:100360006BE188E60E944B018AE191E00E94FA006D
:1003700087E691E00E94FA0040E06CE188E60E9486
:100380004B018AE191E00E94FA000E943301882328
:1003900021F083E891E00E94FA0080ED0E943E0186
:1003A000882321F085E991E00C94FA0008958F925A
:1003B0009F92AF92BF92CF92DF92EF92FF920F93F4
:1003C0001F93CF93DF93EC018A01072E000C880B5B
:1003D000990B0E946A0420E030E040E858E30E9454
:1003E00025056B017C01B801110F880B990B0E9448
:1003F0006A0420E030E040E858E30E9425054B0104
:100400005C01A7019601C701B6010E9425056B0199
:100410007C01A5019401C501B4010E9425059B0141
:10042000AC01C701B6010E9418030E9498056B0138
:100430007C01BE01DD0F880B990B0E946A0420E04D
:1004400030E040E858E30E942505A70196010E948C
:10045000970320E030E044E353E40E9425052BEDB0
:100460003FE049E450E40E94F603DF91CF911F91F1
:100470000F91FF90EF90DF90CF90BF90AF909F9043
:100480008F900895BC01990F880B990B0E946A0404
:1004900020E030E043E053E40E94F60320E030E047
:1004A00040E05FE30E9425052091DA013091DB01F5
:1004B0004091DC015091DD010E9418036093DA0144
:1004C0007093DB018093DC019093DD010895CF925E
:1004D000DF92EF92FF92CF93DF93EC01072E000C97
:1004E000880B990B0E946A0420E030E040E858E352
:1004F0000E9425056B017C01BE01DD0F880B990B65
:100500000E946A0420E030E040E858E30E9425059C
:10051000A70196010E94970320E030E044E353E4F2
:100520000E9425052BED3FE049E450E40E94F603CC
:10053000DF91CF91FF90EF90DF90CF9008950E94D0
:10054000E70085EA91E00E94FA000E9406012FEF81
:1005500081EE94E0215080409040E1F700C000001F
:100560000E9484016BE388E60E9464016C016DE3E4
:1005700088E60E946401EC016FE388E60E94640152
:100580008C0167E488E60E9464017C01B801CE0119
:100590000E9467024B015C01A801BE01C6010E94D6
:1005A000D7012B013C01C7010E9442026B017C0173
:1005B0000EED11E022E046E0C501B4010E94F10514
:1005C00086EB91E00E94FA00C8010E94FA008DEBD0
:1005D00091E00E94FA0022E046E0C301B2010E94CD
:1005E000F10585EC91E00E94FA00C8010E94FA0032
:1005F0008DEC91E00E94FA0022E046E0C701B601CE
:100600000E94F10583ED91E00E94FA00C8010E946A
:10061000FA008DEC91E00E94FA002FEF89E698E154
:10062000215080409040E1F700C000009BCF50581F
:10063000BB27AA270E942F030C94E3040E94D50431
:1006400038F00E94DC0420F039F49F3F19F426F4BE
:100650000C94AB040EF4E095E7FB0C94A504E92F91
:100660000E94F40458F3BA176207730784079507CA
:1006700020F079F4A6F50C9416050EF4E0950B2EF7
:10068000BA2FA02D0B01B90190010C01CA01A001E4
:100690001124FF27591B99F0593F50F4503E68F13F
:1006A0001A16F040A22F232F342F4427585FF3CF80
:1006B000469537952795A795F0405395C9F77EF451
:1006C0001F16BA0B620B730B840BBAF09150A1F09A
:1006D000FF0FBB1F661F771F881FC2F70EC0BA0F20
:1006E000621F731F841F48F4879577956795B795A8
:1006F000F7959E3F08F0B0CF9395880F08F09927A3
:10070000EE0F9795879508950E94D50460F080E8D4
:1007100091E009F49EEF0E94DC0428F040E851E0EB
:1007200071F45EEF0CC00C94AB040C941605E92F29
:10073000E0780E94F40440F3092E052AB1F326174D
:1007400037074807590738F00E2E07F8E02569F0FB
:10075000E025E0640AC0EF6307F8009407FADB01C4
:10076000B9019D01DC01CA01AD01EF930E940D04A6
:100770000E94E3040E94C7035F91552339F02BEDDB
:100780003FE049E450FD49EC0C9418030895DF93D1
:10079000DD27B92FBF7740E85FE316161706480735
:1007A0005B0718F4D92F0E941D059F938F937F93A9
:1007B0006F930E94D805E8E6F0E00E94AE040E9424
:1007C000E3042F913F914F915F910E943805DD2303
:1007D00051F09058A2EA2AED3FE049EC5FE3D0786F
:1007E0005D270E942F03DF910C94E3040E940A040A
:1007F0000C94E3040E94DC0458F00E94D50440F0FD
:1008000029F45F3F29F00C94A50451110C941705AD
:100810000C94AB040E94F40468F39923B1F35523BC
:1008200091F3951B550BBB27AA2762177307840703
:1008300038F09F5F5F4F220F331F441FAA1FA9F399
:1008400035D00E2E3AF0E0E832D091505040E69587
:10085000001CCAF72BD0FE2F29D0660F771F881FE8
:10086000BB1F261737074807AB07B0E809F0BB0BDB
:10087000802DBF01FF2793585F4F3AF09E3F5105EF
:1008800078F00C94A5040C9417055F3FE4F3983EB0
:10089000D4F3869577956795B795F7959F5FC9F7D8
:1008A000880F911D9695879597F90895E1E0660F59
:1008B000771F881FBB1F621773078407BA0720F0D2
:1008C000621B730B840BBA0BEE1F88F7E09508953B
:1008D000E89409C097FB3EF49095809570956195DA
:1008E0007F4F8F4F9F4F9923A9F0F92F96E9BB2790
:1008F0009395F695879577956795B795F111F8CF0C
:10090000FAF4BB0F11F460FF1BC06F5F7F4F8F4F76
:100910009F4F16C0882311F096E911C0772321F06C
:100920009EE8872F762F05C0662371F096E8862F04
:1009300070E060E02AF09A95660F771F881FDAF75B
:10094000880F9695879597F9089597F99F6780E89E
:1009500070E060E008959FEF80EC0895DF93CF93FF
:100960001F930F93FF92EF92DF927B018C016894AB
:1009700006C0DA2EEF010E943805FE01E894A59129
:100980002591359145915591A6F3EF010E942F03D2
:10099000FE019701A801DA9469F7DF90EF90FF90CC
:1009A0000F911F91CF91DF91089500240A9416169C
:1009B000170618060906089500240A94121613064D
:1009C000140605060895092E0394000C11F48823DB
:1009D00052F0BB0F40F4BF2B11F460FF04C06F5FF7
:1009E0007F4F8F4F9F4F089557FD9058440F551FCD
:1009F00059F05F3F71F04795880F97FB991F61F0A1
:100A00009F3F79F087950895121613061406551F17
:100A1000F2CF4695F1DF08C0161617061806991F83
:100A2000F1CF86957105610508940895E894BB2778
:100A300066277727CB0197F908959B01AC0160E009
:100A400070E080E89FE30C94F6030E9438050C9454
:100A5000E3040E94D50438F00E94DC0420F09523C2
:100A600011F00C94A5040C94AB0411240C941705FC
:100A70000E94F40470F3959FC1F3950F50E0551F49
:100A8000629FF001729FBB27F00DB11D639FAA27E3
:100A9000F00DB11DAA1F649F6627B00DA11D661F32
:100AA000829F2227B00DA11D621F739FB00DA11D53
:100AB000621F839FA00D611D221F749F3327A00D0D
:100AC000611D231F849F600D211D822F762F6A2FA9
:100AD00011249F5750409AF0F1F088234AF0EE0F0E
:100AE000FF1FBB1F661F771F881F91505040A9F73B
:100AF0009E3F510580F00C94A5040C9417055F3FB0
:100B0000E4F3983ED4F3869577956795B795F79576
:100B1000E7959F5FC1F7FE2B880F911D96958795EE
:100B200097F9089519F416F40C94AB040C94DC05B1
:100B30000E94FC04B8F39923C9F3B6F39F57550BF1
:100B400087FF0E94EA050024A0E640EA9001805851
:100B50005695979528F4805C660F771F881F20F0C4
:100B600026173707480730F4621B730B840B2029C4
:100B700031294A2BA69517940794202531254A2719
:100B800058F7660F771F881F20F02617370748078A
:100B900030F4620B730B840B200D311D411DA095A9
:100BA00081F7B901842F9158880F969587950895FC
:100BB0009B01AC010C9425059F3F31F0915020F42E
:100BC000879577956795B795880F911D9695879529
:100BD00097F9089591505040660F771F881FD2F7FC
:100BE0000895EF920F931F93CF93DF93E80134E0C2
:100BF00047FD34E1042E000C550B57FF03C05195FF
:100C000041955109E32E022F242FAE010E940F06B9
:100C1000CE01DF91CF911F910F91EF900895A9E040
:100C2000B0E0E5E1F6E00C944C086A01F22EB02E3B
:100C3000102FFBE3AF2EA01608F41BE31F5F012F5C
:100C400027E0AE014F5F5F4F0E946E07BC018981B4
:100C5000982F9970913009F43FC09BE2E1FC04C0E9
:100C60009E2D9170E0FC3AC05E2D5071E82FE87027
:100C700083FF46C084E0911101C083E0EF2DE81BA3
:100C80008F1508F0E0E0D6018E2F20E2552351F1B8
:100C9000992329F0D6019C93C60101966C01960117
:100CA0002D5F3F4FE2FE24C08EE4D6018C9391E489
:100CB00011969C93119712968C93D9018E2F90E2E6
:100CC00081111BC0E20FF32FF11D10828EEF9FEFF9
:100CD0002996ECE00C9468089DE2C6CF90E2C4CF60
:100CE0002D9381508111FCCFCE0ED11CE0E0D0CFEE
:100CF0008EE6D6018C9391E6DBCF9D938150E0CFB9
:100D0000482F447082FF3DC084E0911101C083E010
:100D10008F1510F4EF2DE81BD6018E2F20E25523FE
:100D200009F1992329F0D6019C93C60101966C0123
:100D300096012D5F3F4FE2FE1BC089E4D6018C93E4
:100D40008EE411968C93119786E412968C93D901B8
:100D50008E2F90E2882309F4B5CF9D938150FACF6E
:100D60002D9381508111FCCFCE0ED11CE0E0D9CF64
:100D700089E6D6018C938EE611968C93119786E6C0
:100D8000E4CF9B0177FF02C030E020E0A1E0B0E0BB
:100D9000911102C0B0E0A0E0F9013196AE0FBF1F83
:100DA0008B2C912CBB2009F461C05401EFEFAE1ADB
:100DB000BE0AAA0DBB1DFA161B0619F014F04F2D22
:100DC0004A1B511188C0E3FC59C07601A42FB0E240
:100DD000A1114FC0C40ED11C992309F45BC040E09F
:100DE000D6011196F60190836D01552309F448C090
:100DF000012F060F9A81582F507184FF03C0913341
:100E000009F4015010160CF047C0093008F008E052
:100E1000EEE2FE2E5B01A01AB10885019194819447
:100E200091082F3F320729F4D601FC92F601319642
:100E30006F016217730794F1021713077CF5DB014A
:100E4000A21BB30BAA24A394B12CAC0EBD1EAA0DF9
:100E5000BB1D11968C9121503109D6011196281590
:100E60003905F4F0F60180836D01DBCFB12CA12CA4
:100E7000A0CFF701B1937F01A150AACF9111B0CFBC
:100E8000D601942F50E302C05D9391509111FCCF95
:100E9000C40ED11C40E0ACCF01E0BACF80E3DBCF81
:100EA0006217730731F4963388F4953311F45523A0
:100EB00069F0F6018083FD01842F90E2811108C062
:100EC000A40FB11D1C9290E080E002CF81E3F1CF2E
:100ED00091938150F3CF911183CF8ACF283008F0BE
:100EE00027E03327DA01990F311D87FD91600096C5
:100EF0006105710539F432602E5F3D9330E32A9528
:100F0000E1F708959F3F30F080387105610509F0E1
:100F10003C5F3C5F3D93913008F08068911DDF930A
:100F2000CF931F930F93FF92EF92192F987F96956F
:100F3000E92F96959695E90FFF27E051FF4F9927E6
:100F40003327EE24FF24A701E701059008940794B6
:100F500028F4360FE71EF81E491F511D660F771F34
:100F6000881F991F0694A1F70590079428F4E70EAF
:100F7000F81E491F561FC11D770F881F991F661F36
:100F80000694A1F70590079428F4F80E491F561F00
:100F9000C71FD11D880F991F661F771F0694A1F7E1
:100FA0000590079420F4490F561FC71FD81F990FAB
:100FB000661F771F881F0694A9F7849110951770F4
:100FC00041F0D695C79557954795F794E7941A95AC
:100FD000C1F7E6E9F0E068941590159135916591B7
:100FE000959105907FE27395E118F10A430B560B3A
:100FF000C90BD009C0F7E10CF11E431F561FC91FD2
:10100000D01D7EF4703311F48A95E6CFE894015038
:1010100030F0080F0AF40027021708F4202F239558
:10102000022F7A3328F079E37D932A95E9F710C0EF
:101030007D932A9589F60694979567953795179528
:101040001794E118F10A430B560BC90BD00998F01D
:1010500023957E9173957A3308F070E37C93201387
:10106000B8F77E9170617D9330F0839571E37D9345
:1010700070E32A95E1F71124EF90FF900F911F91F3
:10108000CF91DF91992787FD909508952F923F92F8
:101090004F925F926F927F928F929F92AF92BF9288
:1010A000CF92DF92EF92FF920F931F93CF93DF9334
:1010B000CDB7DEB7CA1BDB0B0FB6F894DEBF0FBE91
:1010C000CDBF09942A88398848885F846E847D84DE
:1010D0008C849B84AA84B984C884DF80EE80FD80E0
:1010E0000C811B81AA81B981CE0FD11D0FB6F89456
:0E10F000DEBF0FBECDBFED010895F894FFCF17
:1010FE0057726974696E6720746F205057525F4D36
:10110E00474D545F312E2E2E0A00446F6E650A0035
:10111E0057726974696E6720746F20534D504C522C
:10112E00542E2E2E0A0057726974696E6720746FE2
:10113E0020434F4E4649472E2E2E0A005772697491
:10114E00696E6720746F204759524F5F434F4E466A
:10115E0049472E2E2E0A0057726974696E672074E5
:10116E006F20414343454C5F434F4E4649472E2E19
:10117E002E0A00493243205354415254206661696D
:10118E006C65640A004D5055206E6F742041434BC0
:10119E00696E670A007561727420696E69742064E5
:1011AE006F6E65200A00526F6C6C3A2000206465E9
:1011BE0067207C200050697463683A2000206465C3
:0A11CE00670A005961773A2000001B
:00000001FF
